{
  "_format": "hh-sol-artifact-1",
  "contractName": "MyNFT",
  "sourceName": "contracts/MyNFT.sol",
  "abi": [
    {
      "inputs": [],
      "stateMutability": "nonpayable",
      "type": "constructor"
    },
    {
      "inputs": [
        {
          "internalType": "address",
          "name": "sender",
          "type": "address"
        },
        {
          "internalType": "uint256",
          "name": "tokenId",
          "type": "uint256"
        },
        {
          "internalType": "address",
          "name": "owner",
          "type": "address"
        }
      ],
      "name": "ERC721IncorrectOwner",
      "type": "error"
    },
    {
      "inputs": [
        {
          "internalType": "address",
          "name": "operator",
          "type": "address"
        },
        {
          "internalType": "uint256",
          "name": "tokenId",
          "type": "uint256"
        }
      ],
      "name": "ERC721InsufficientApproval",
      "type": "error"
    },
    {
      "inputs": [
        {
          "internalType": "address",
          "name": "approver",
          "type": "address"
        }
      ],
      "name": "ERC721InvalidApprover",
      "type": "error"
    },
    {
      "inputs": [
        {
          "internalType": "address",
          "name": "operator",
          "type": "address"
        }
      ],
      "name": "ERC721InvalidOperator",
      "type": "error"
    },
    {
      "inputs": [
        {
          "internalType": "address",
          "name": "owner",
          "type": "address"
        }
      ],
      "name": "ERC721InvalidOwner",
      "type": "error"
    },
    {
      "inputs": [
        {
          "internalType": "address",
          "name": "receiver",
          "type": "address"
        }
      ],
      "name": "ERC721InvalidReceiver",
      "type": "error"
    },
    {
      "inputs": [
        {
          "internalType": "address",
          "name": "sender",
          "type": "address"
        }
      ],
      "name": "ERC721InvalidSender",
      "type": "error"
    },
    {
      "inputs": [
        {
          "internalType": "uint256",
          "name": "tokenId",
          "type": "uint256"
        }
      ],
      "name": "ERC721NonexistentToken",
      "type": "error"
    },
    {
      "inputs": [
        {
          "internalType": "address",
          "name": "owner",
          "type": "address"
        }
      ],
      "name": "OwnableInvalidOwner",
      "type": "error"
    },
    {
      "inputs": [
        {
          "internalType": "address",
          "name": "account",
          "type": "address"
        }
      ],
      "name": "OwnableUnauthorizedAccount",
      "type": "error"
    },
    {
      "anonymous": false,
      "inputs": [
        {
          "indexed": true,
          "internalType": "address",
          "name": "owner",
          "type": "address"
        },
        {
          "indexed": true,
          "internalType": "address",
          "name": "approved",
          "type": "address"
        },
        {
          "indexed": true,
          "internalType": "uint256",
          "name": "tokenId",
          "type": "uint256"
        }
      ],
      "name": "Approval",
      "type": "event"
    },
    {
      "anonymous": false,
      "inputs": [
        {
          "indexed": true,
          "internalType": "address",
          "name": "owner",
          "type": "address"
        },
        {
          "indexed": true,
          "internalType": "address",
          "name": "operator",
          "type": "address"
        },
        {
          "indexed": false,
          "internalType": "bool",
          "name": "approved",
          "type": "bool"
        }
      ],
      "name": "ApprovalForAll",
      "type": "event"
    },
    {
      "anonymous": false,
      "inputs": [
        {
          "indexed": true,
          "internalType": "address",
          "name": "previousOwner",
          "type": "address"
        },
        {
          "indexed": true,
          "internalType": "address",
          "name": "newOwner",
          "type": "address"
        }
      ],
      "name": "OwnershipTransferred",
      "type": "event"
    },
    {
      "anonymous": false,
      "inputs": [
        {
          "indexed": true,
          "internalType": "address",
          "name": "from",
          "type": "address"
        },
        {
          "indexed": true,
          "internalType": "address",
          "name": "to",
          "type": "address"
        },
        {
          "indexed": true,
          "internalType": "uint256",
          "name": "tokenId",
          "type": "uint256"
        }
      ],
      "name": "Transfer",
      "type": "event"
    },
    {
      "inputs": [],
      "name": "admin",
      "outputs": [
        {
          "internalType": "address",
          "name": "",
          "type": "address"
        }
      ],
      "stateMutability": "view",
      "type": "function"
    },
    {
      "inputs": [
        {
          "internalType": "address",
          "name": "to",
          "type": "address"
        },
        {
          "internalType": "uint256",
          "name": "tokenId",
          "type": "uint256"
        }
      ],
      "name": "approve",
      "outputs": [],
      "stateMutability": "nonpayable",
      "type": "function"
    },
    {
      "inputs": [
        {
          "internalType": "address",
          "name": "owner",
          "type": "address"
        }
      ],
      "name": "balanceOf",
      "outputs": [
        {
          "internalType": "uint256",
          "name": "",
          "type": "uint256"
        }
      ],
      "stateMutability": "view",
      "type": "function"
    },
    {
      "inputs": [
        {
          "internalType": "uint256",
          "name": "tokenId",
          "type": "uint256"
        }
      ],
      "name": "getApproved",
      "outputs": [
        {
          "internalType": "address",
          "name": "",
          "type": "address"
        }
      ],
      "stateMutability": "view",
      "type": "function"
    },
    {
      "inputs": [
        {
          "internalType": "address",
          "name": "owner",
          "type": "address"
        },
        {
          "internalType": "address",
          "name": "operator",
          "type": "address"
        }
      ],
      "name": "isApprovedForAll",
      "outputs": [
        {
          "internalType": "bool",
          "name": "",
          "type": "bool"
        }
      ],
      "stateMutability": "view",
      "type": "function"
    },
    {
      "inputs": [
        {
          "internalType": "address",
          "name": "to",
          "type": "address"
        }
      ],
      "name": "mint",
      "outputs": [],
      "stateMutability": "nonpayable",
      "type": "function"
    },
    {
      "inputs": [],
      "name": "name",
      "outputs": [
        {
          "internalType": "string",
          "name": "",
          "type": "string"
        }
      ],
      "stateMutability": "view",
      "type": "function"
    },
    {
      "inputs": [],
      "name": "nextTokenId",
      "outputs": [
        {
          "internalType": "uint256",
          "name": "",
          "type": "uint256"
        }
      ],
      "stateMutability": "view",
      "type": "function"
    },
    {
      "inputs": [],
      "name": "owner",
      "outputs": [
        {
          "internalType": "address",
          "name": "",
          "type": "address"
        }
      ],
      "stateMutability": "view",
      "type": "function"
    },
    {
      "inputs": [
        {
          "internalType": "uint256",
          "name": "tokenId",
          "type": "uint256"
        }
      ],
      "name": "ownerOf",
      "outputs": [
        {
          "internalType": "address",
          "name": "",
          "type": "address"
        }
      ],
      "stateMutability": "view",
      "type": "function"
    },
    {
      "inputs": [],
      "name": "renounceOwnership",
      "outputs": [],
      "stateMutability": "nonpayable",
      "type": "function"
    },
    {
      "inputs": [
        {
          "internalType": "address",
          "name": "from",
          "type": "address"
        },
        {
          "internalType": "address",
          "name": "to",
          "type": "address"
        },
        {
          "internalType": "uint256",
          "name": "tokenId",
          "type": "uint256"
        }
      ],
      "name": "safeTransferFrom",
      "outputs": [],
      "stateMutability": "nonpayable",
      "type": "function"
    },
    {
      "inputs": [
        {
          "internalType": "address",
          "name": "from",
          "type": "address"
        },
        {
          "internalType": "address",
          "name": "to",
          "type": "address"
        },
        {
          "internalType": "uint256",
          "name": "tokenId",
          "type": "uint256"
        },
        {
          "internalType": "bytes",
          "name": "data",
          "type": "bytes"
        }
      ],
      "name": "safeTransferFrom",
      "outputs": [],
      "stateMutability": "nonpayable",
      "type": "function"
    },
    {
      "inputs": [
        {
          "internalType": "address",
          "name": "operator",
          "type": "address"
        },
        {
          "internalType": "bool",
          "name": "approved",
          "type": "bool"
        }
      ],
      "name": "setApprovalForAll",
      "outputs": [],
      "stateMutability": "nonpayable",
      "type": "function"
    },
    {
      "inputs": [
        {
          "internalType": "bytes4",
          "name": "interfaceId",
          "type": "bytes4"
        }
      ],
      "name": "supportsInterface",
      "outputs": [
        {
          "internalType": "bool",
          "name": "",
          "type": "bool"
        }
      ],
      "stateMutability": "view",
      "type": "function"
    },
    {
      "inputs": [],
      "name": "symbol",
      "outputs": [
        {
          "internalType": "string",
          "name": "",
          "type": "string"
        }
      ],
      "stateMutability": "view",
      "type": "function"
    },
    {
      "inputs": [
        {
          "internalType": "uint256",
          "name": "tokenId",
          "type": "uint256"
        }
      ],
      "name": "tokenURI",
      "outputs": [
        {
          "internalType": "string",
          "name": "",
          "type": "string"
        }
      ],
      "stateMutability": "view",
      "type": "function"
    },
    {
      "inputs": [
        {
          "internalType": "address",
          "name": "from",
          "type": "address"
        },
        {
          "internalType": "address",
          "name": "to",
          "type": "address"
        },
        {
          "internalType": "uint256",
          "name": "tokenId",
          "type": "uint256"
        }
      ],
      "name": "transferFrom",
      "outputs": [],
      "stateMutability": "nonpayable",
      "type": "function"
    },
    {
      "inputs": [
        {
          "internalType": "address",
          "name": "newOwner",
          "type": "address"
        }
      ],
      "name": "transferOwnership",
      "outputs": [],
      "stateMutability": "nonpayable",
      "type": "function"
    }
  ],
  "bytecode": "0x608060405234801561001057600080fd5b50336040518060400160405280600581526020017f4d794e46540000000000000000000000000000000000000000000000000000008152506040518060400160405280600481526020017f4d4e465400000000000000000000000000000000000000000000000000000000815250816000908161008d919061047e565b50806001908161009d919061047e565b505050600073ffffffffffffffffffffffffffffffffffffffff168173ffffffffffffffffffffffffffffffffffffffff16036101125760006040517f1e4fbdf70000000000000000000000000000000000000000000000000000000081526004016101099190610591565b60405180910390fd5b6101218161016860201b60201c565b5033600860006101000a81548173ffffffffffffffffffffffffffffffffffffffff021916908373ffffffffffffffffffffffffffffffffffffffff1602179055506105ac565b6000600660009054906101000a900473ffffffffffffffffffffffffffffffffffffffff16905081600660006101000a81548173ffffffffffffffffffffffffffffffffffffffff021916908373ffffffffffffffffffffffffffffffffffffffff1602179055508173ffffffffffffffffffffffffffffffffffffffff168173ffffffffffffffffffffffffffffffffffffffff167f8be0079c531659141344cd1fd0a4f28419497f9722a3daafe3b4186f6b6457e060405160405180910390a35050565b600081519050919050565b7f4e487b7100000000000000000000000000000000000000000000000000000000600052604160045260246000fd5b7f4e487b7100000000000000000000000000000000000000000000000000000000600052602260045260246000fd5b600060028204905060018216806102af57607f821691505b6020821081036102c2576102c1610268565b5b50919050565b60008190508160005260206000209050919050565b60006020601f8301049050919050565b600082821b905092915050565b60006008830261032a7fffffffffffffffffffffffffffffffffffffffffffffffffffffffffffffffff826102ed565b61033486836102ed565b95508019841693508086168417925050509392505050565b6000819050919050565b6000819050919050565b600061037b6103766103718461034c565b610356565b61034c565b9050919050565b6000819050919050565b61039583610360565b6103a96103a182610382565b8484546102fa565b825550505050565b600090565b6103be6103b1565b6103c981848461038c565b505050565b5b818110156103ed576103e26000826103b6565b6001810190506103cf565b5050565b601f82111561043257610403816102c8565b61040c846102dd565b8101602085101561041b578190505b61042f610427856102dd565b8301826103ce565b50505b505050565b600082821c905092915050565b600061045560001984600802610437565b1980831691505092915050565b600061046e8383610444565b9150826002028217905092915050565b6104878261022e565b67ffffffffffffffff8111156104a05761049f610239565b5b6104aa8254610297565b6104b58282856103f1565b600060209050601f8311600181146104e857600084156104d6578287015190505b6104e08582610462565b865550610548565b601f1984166104f6866102c8565b60005b8281101561051e578489015182556001820191506020850194506020810190506104f9565b8683101561053b5784890151610537601f891682610444565b8355505b6001600288020188555050505b505050505050565b600073ffffffffffffffffffffffffffffffffffffffff82169050919050565b600061057b82610550565b9050919050565b61058b81610570565b82525050565b60006020820190506105a66000830184610582565b92915050565b61218a806105bb6000396000f3fe608060405234801561001057600080fd5b50600436106101215760003560e01c8063715018a6116100ad578063b88d4fde11610071578063b88d4fde146102f4578063c87b56dd14610310578063e985e9c514610340578063f2fde38b14610370578063f851a4401461038c57610121565b8063715018a61461027457806375794a3c1461027e5780638da5cb5b1461029c57806395d89b41146102ba578063a22cb465146102d857610121565b806323b872dd116100f457806323b872dd146101c057806342842e0e146101dc5780636352211e146101f85780636a6278421461022857806370a082311461024457610121565b806301ffc9a71461012657806306fdde0314610156578063081812fc14610174578063095ea7b3146101a4575b600080fd5b610140600480360381019061013b919061195d565b6103aa565b60405161014d91906119a5565b60405180910390f35b61015e61048c565b60405161016b9190611a50565b60405180910390f35b61018e60048036038101906101899190611aa8565b61051e565b60405161019b9190611b16565b60405180910390f35b6101be60048036038101906101b99190611b5d565b61053a565b005b6101da60048036038101906101d59190611b9d565b610550565b005b6101f660048036038101906101f19190611b9d565b610652565b005b610212600480360381019061020d9190611aa8565b610672565b60405161021f9190611b16565b60405180910390f35b610242600480360381019061023d9190611bf0565b610684565b005b61025e60048036038101906102599190611bf0565b6106b3565b60405161026b9190611c2c565b60405180910390f35b61027c61076d565b005b610286610781565b6040516102939190611c2c565b60405180910390f35b6102a4610787565b6040516102b19190611b16565b60405180910390f35b6102c26107b1565b6040516102cf9190611a50565b60405180910390f35b6102f260048036038101906102ed9190611c73565b610843565b005b61030e60048036038101906103099190611de8565b610859565b005b61032a60048036038101906103259190611aa8565b61087e565b6040516103379190611a50565b60405180910390f35b61035a60048036038101906103559190611e6b565b6108e7565b60405161036791906119a5565b60405180910390f35b61038a60048036038101906103859190611bf0565b61097b565b005b610394610a01565b6040516103a19190611b16565b60405180910390f35b60007f80ac58cd000000000000000000000000000000000000000000000000000000007bffffffffffffffffffffffffffffffffffffffffffffffffffffffff1916827bffffffffffffffffffffffffffffffffffffffffffffffffffffffff1916148061047557507f5b5e139f000000000000000000000000000000000000000000000000000000007bffffffffffffffffffffffffffffffffffffffffffffffffffffffff1916827bffffffffffffffffffffffffffffffffffffffffffffffffffffffff1916145b80610485575061048482610a27565b5b9050919050565b60606000805461049b90611eda565b80601f01602080910402602001604051908101604052809291908181526020018280546104c790611eda565b80156105145780601f106104e957610100808354040283529160200191610514565b820191906000526020600020905b8154815290600101906020018083116104f757829003601f168201915b5050505050905090565b600061052982610a91565b5061053382610b19565b9050919050565b61054c8282610547610b56565b610b5e565b5050565b600073ffffffffffffffffffffffffffffffffffffffff168273ffffffffffffffffffffffffffffffffffffffff16036105c25760006040517f64a0ae920000000000000000000000000000000000000000000000000000000081526004016105b99190611b16565b60405180910390fd5b60006105d683836105d1610b56565b610b70565b90508373ffffffffffffffffffffffffffffffffffffffff168173ffffffffffffffffffffffffffffffffffffffff161461064c578382826040517f64283d7b00000000000000000000000000000000000000000000000000000000815260040161064393929190611f0b565b60405180910390fd5b50505050565b61066d83838360405180602001604052806000815250610859565b505050565b600061067d82610a91565b9050919050565b61068c610d8a565b61069881600754610e11565b600760008154809291906106ab90611f71565b919050555050565b60008073ffffffffffffffffffffffffffffffffffffffff168273ffffffffffffffffffffffffffffffffffffffff16036107265760006040517f89c62b6400000000000000000000000000000000000000000000000000000000815260040161071d9190611b16565b60405180910390fd5b600360008373ffffffffffffffffffffffffffffffffffffffff1673ffffffffffffffffffffffffffffffffffffffff168152602001908152602001600020549050919050565b610775610d8a565b61077f6000610e2f565b565b60075481565b6000600660009054906101000a900473ffffffffffffffffffffffffffffffffffffffff16905090565b6060600180546107c090611eda565b80601f01602080910402602001604051908101604052809291908181526020018280546107ec90611eda565b80156108395780601f1061080e57610100808354040283529160200191610839565b820191906000526020600020905b81548152906001019060200180831161081c57829003601f168201915b5050505050905090565b61085561084e610b56565b8383610ef5565b5050565b610864848484610550565b61087861086f610b56565b85858585611064565b50505050565b606061088982610a91565b506000610894611215565b905060008151116108b457604051806020016040528060008152506108df565b806108be8461122c565b6040516020016108cf929190611ff5565b6040516020818303038152906040525b915050919050565b6000600560008473ffffffffffffffffffffffffffffffffffffffff1673ffffffffffffffffffffffffffffffffffffffff16815260200190815260200160002060008373ffffffffffffffffffffffffffffffffffffffff1673ffffffffffffffffffffffffffffffffffffffff16815260200190815260200160002060009054906101000a900460ff16905092915050565b610983610d8a565b600073ffffffffffffffffffffffffffffffffffffffff168173ffffffffffffffffffffffffffffffffffffffff16036109f55760006040517f1e4fbdf70000000000000000000000000000000000000000000000000000000081526004016109ec9190611b16565b60405180910390fd5b6109fe81610e2f565b50565b600860009054906101000a900473ffffffffffffffffffffffffffffffffffffffff1681565b60007f01ffc9a7000000000000000000000000000000000000000000000000000000007bffffffffffffffffffffffffffffffffffffffffffffffffffffffff1916827bffffffffffffffffffffffffffffffffffffffffffffffffffffffff1916149050919050565b600080610a9d836112fa565b9050600073ffffffffffffffffffffffffffffffffffffffff168173ffffffffffffffffffffffffffffffffffffffff1603610b1057826040517f7e273289000000000000000000000000000000000000000000000000000000008152600401610b079190611c2c565b60405180910390fd5b80915050919050565b60006004600083815260200190815260200160002060009054906101000a900473ffffffffffffffffffffffffffffffffffffffff169050919050565b600033905090565b610b6b8383836001611337565b505050565b600080610b7c846112fa565b9050600073ffffffffffffffffffffffffffffffffffffffff168373ffffffffffffffffffffffffffffffffffffffff1614610bbe57610bbd8184866114fc565b5b600073ffffffffffffffffffffffffffffffffffffffff168173ffffffffffffffffffffffffffffffffffffffff1614610c4f57610c00600085600080611337565b6001600360008373ffffffffffffffffffffffffffffffffffffffff1673ffffffffffffffffffffffffffffffffffffffff168152602001908152602001600020600082825403925050819055505b600073ffffffffffffffffffffffffffffffffffffffff168573ffffffffffffffffffffffffffffffffffffffff1614610cd2576001600360008773ffffffffffffffffffffffffffffffffffffffff1673ffffffffffffffffffffffffffffffffffffffff168152602001908152602001600020600082825401925050819055505b846002600086815260200190815260200160002060006101000a81548173ffffffffffffffffffffffffffffffffffffffff021916908373ffffffffffffffffffffffffffffffffffffffff160217905550838573ffffffffffffffffffffffffffffffffffffffff168273ffffffffffffffffffffffffffffffffffffffff167fddf252ad1be2c89b69c2b068fc378daa952ba7f163c4a11628f55a4df523b3ef60405160405180910390a4809150509392505050565b610d92610b56565b73ffffffffffffffffffffffffffffffffffffffff16610db0610787565b73ffffffffffffffffffffffffffffffffffffffff1614610e0f57610dd3610b56565b6040517f118cdaa7000000000000000000000000000000000000000000000000000000008152600401610e069190611b16565b60405180910390fd5b565b610e2b8282604051806020016040528060008152506115c0565b5050565b6000600660009054906101000a900473ffffffffffffffffffffffffffffffffffffffff16905081600660006101000a81548173ffffffffffffffffffffffffffffffffffffffff021916908373ffffffffffffffffffffffffffffffffffffffff1602179055508173ffffffffffffffffffffffffffffffffffffffff168173ffffffffffffffffffffffffffffffffffffffff167f8be0079c531659141344cd1fd0a4f28419497f9722a3daafe3b4186f6b6457e060405160405180910390a35050565b600073ffffffffffffffffffffffffffffffffffffffff168273ffffffffffffffffffffffffffffffffffffffff1603610f6657816040517f5b08ba18000000000000000000000000000000000000000000000000000000008152600401610f5d9190611b16565b60405180910390fd5b80600560008573ffffffffffffffffffffffffffffffffffffffff1673ffffffffffffffffffffffffffffffffffffffff16815260200190815260200160002060008473ffffffffffffffffffffffffffffffffffffffff1673ffffffffffffffffffffffffffffffffffffffff16815260200190815260200160002060006101000a81548160ff0219169083151502179055508173ffffffffffffffffffffffffffffffffffffffff168373ffffffffffffffffffffffffffffffffffffffff167f17307eab39ab6107e8899845ad3d59bd9653f200f220920489ca2b5937696c318360405161105791906119a5565b60405180910390a3505050565b60008373ffffffffffffffffffffffffffffffffffffffff163b111561120e578273ffffffffffffffffffffffffffffffffffffffff1663150b7a02868685856040518563ffffffff1660e01b81526004016110c3949392919061206e565b6020604051808303816000875af19250505080156110ff57506040513d601f19601f820116820180604052508101906110fc91906120cf565b60015b611183573d806000811461112f576040519150601f19603f3d011682016040523d82523d6000602084013e611134565b606091505b50600081510361117b57836040517f64a0ae920000000000000000000000000000000000000000000000000000000081526004016111729190611b16565b60405180910390fd5b805181602001fd5b63150b7a0260e01b7bffffffffffffffffffffffffffffffffffffffffffffffffffffffff1916817bffffffffffffffffffffffffffffffffffffffffffffffffffffffff19161461120c57836040517f64a0ae920000000000000000000000000000000000000000000000000000000081526004016112039190611b16565b60405180910390fd5b505b5050505050565b606060405180602001604052806000815250905090565b60606000600161123b846115e4565b01905060008167ffffffffffffffff81111561125a57611259611cbd565b5b6040519080825280601f01601f19166020018201604052801561128c5781602001600182028036833780820191505090505b509050600082602001820190505b6001156112ef578080600190039150507f3031323334353637383961626364656600000000000000000000000000000000600a86061a8153600a85816112e3576112e26120fc565b5b0494506000850361129a575b819350505050919050565b60006002600083815260200190815260200160002060009054906101000a900473ffffffffffffffffffffffffffffffffffffffff169050919050565b80806113705750600073ffffffffffffffffffffffffffffffffffffffff168273ffffffffffffffffffffffffffffffffffffffff1614155b156114a457600061138084610a91565b9050600073ffffffffffffffffffffffffffffffffffffffff168373ffffffffffffffffffffffffffffffffffffffff16141580156113eb57508273ffffffffffffffffffffffffffffffffffffffff168173ffffffffffffffffffffffffffffffffffffffff1614155b80156113fe57506113fc81846108e7565b155b1561144057826040517fa9fbf51f0000000000000000000000000000000000000000000000000000000081526004016114379190611b16565b60405180910390fd5b81156114a257838573ffffffffffffffffffffffffffffffffffffffff168273ffffffffffffffffffffffffffffffffffffffff167f8c5be1e5ebec7d5bd14f71427d1e84f3dd0314c0f7b2291e5b200ac8c7c3b92560405160405180910390a45b505b836004600085815260200190815260200160002060006101000a81548173ffffffffffffffffffffffffffffffffffffffff021916908373ffffffffffffffffffffffffffffffffffffffff16021790555050505050565b611507838383611737565b6115bb57600073ffffffffffffffffffffffffffffffffffffffff168373ffffffffffffffffffffffffffffffffffffffff160361157c57806040517f7e2732890000000000000000000000000000000000000000000000000000000081526004016115739190611c2c565b60405180910390fd5b81816040517f177e802f0000000000000000000000000000000000000000000000000000000081526004016115b292919061212b565b60405180910390fd5b505050565b6115ca83836117f8565b6115df6115d5610b56565b6000858585611064565b505050565b600080600090507a184f03e93ff9f4daa797ed6e38ed64bf6a1f0100000000000000008310611642577a184f03e93ff9f4daa797ed6e38ed64bf6a1f0100000000000000008381611638576116376120fc565b5b0492506040810190505b6d04ee2d6d415b85acef8100000000831061167f576d04ee2d6d415b85acef81000000008381611675576116746120fc565b5b0492506020810190505b662386f26fc1000083106116ae57662386f26fc1000083816116a4576116a36120fc565b5b0492506010810190505b6305f5e10083106116d7576305f5e10083816116cd576116cc6120fc565b5b0492506008810190505b61271083106116fc5761271083816116f2576116f16120fc565b5b0492506004810190505b6064831061171f5760648381611715576117146120fc565b5b0492506002810190505b600a831061172e576001810190505b80915050919050565b60008073ffffffffffffffffffffffffffffffffffffffff168373ffffffffffffffffffffffffffffffffffffffff16141580156117ef57508273ffffffffffffffffffffffffffffffffffffffff168473ffffffffffffffffffffffffffffffffffffffff1614806117b057506117af84846108e7565b5b806117ee57508273ffffffffffffffffffffffffffffffffffffffff166117d683610b19565b73ffffffffffffffffffffffffffffffffffffffff16145b5b90509392505050565b600073ffffffffffffffffffffffffffffffffffffffff168273ffffffffffffffffffffffffffffffffffffffff160361186a5760006040517f64a0ae920000000000000000000000000000000000000000000000000000000081526004016118619190611b16565b60405180910390fd5b600061187883836000610b70565b9050600073ffffffffffffffffffffffffffffffffffffffff168173ffffffffffffffffffffffffffffffffffffffff16146118ec5760006040517f73c6ac6e0000000000000000000000000000000000000000000000000000000081526004016118e39190611b16565b60405180910390fd5b505050565b6000604051905090565b600080fd5b600080fd5b60007fffffffff0000000000000000000000000000000000000000000000000000000082169050919050565b61193a81611905565b811461194557600080fd5b50565b60008135905061195781611931565b92915050565b600060208284031215611973576119726118fb565b5b600061198184828501611948565b91505092915050565b60008115159050919050565b61199f8161198a565b82525050565b60006020820190506119ba6000830184611996565b92915050565b600081519050919050565b600082825260208201905092915050565b60005b838110156119fa5780820151818401526020810190506119df565b60008484015250505050565b6000601f19601f8301169050919050565b6000611a22826119c0565b611a2c81856119cb565b9350611a3c8185602086016119dc565b611a4581611a06565b840191505092915050565b60006020820190508181036000830152611a6a8184611a17565b905092915050565b6000819050919050565b611a8581611a72565b8114611a9057600080fd5b50565b600081359050611aa281611a7c565b92915050565b600060208284031215611abe57611abd6118fb565b5b6000611acc84828501611a93565b91505092915050565b600073ffffffffffffffffffffffffffffffffffffffff82169050919050565b6000611b0082611ad5565b9050919050565b611b1081611af5565b82525050565b6000602082019050611b2b6000830184611b07565b92915050565b611b3a81611af5565b8114611b4557600080fd5b50565b600081359050611b5781611b31565b92915050565b60008060408385031215611b7457611b736118fb565b5b6000611b8285828601611b48565b9250506020611b9385828601611a93565b9150509250929050565b600080600060608486031215611bb657611bb56118fb565b5b6000611bc486828701611b48565b9350506020611bd586828701611b48565b9250506040611be686828701611a93565b9150509250925092565b600060208284031215611c0657611c056118fb565b5b6000611c1484828501611b48565b91505092915050565b611c2681611a72565b82525050565b6000602082019050611c416000830184611c1d565b92915050565b611c508161198a565b8114611c5b57600080fd5b50565b600081359050611c6d81611c47565b92915050565b60008060408385031215611c8a57611c896118fb565b5b6000611c9885828601611b48565b9250506020611ca985828601611c5e565b9150509250929050565b600080fd5b600080fd5b7f4e487b7100000000000000000000000000000000000000000000000000000000600052604160045260246000fd5b611cf582611a06565b810181811067ffffffffffffffff82111715611d1457611d13611cbd565b5b80604052505050565b6000611d276118f1565b9050611d338282611cec565b919050565b600067ffffffffffffffff821115611d5357611d52611cbd565b5b611d5c82611a06565b9050602081019050919050565b82818337600083830152505050565b6000611d8b611d8684611d38565b611d1d565b905082815260208101848484011115611da757611da6611cb8565b5b611db2848285611d69565b509392505050565b600082601f830112611dcf57611dce611cb3565b5b8135611ddf848260208601611d78565b91505092915050565b60008060008060808587031215611e0257611e016118fb565b5b6000611e1087828801611b48565b9450506020611e2187828801611b48565b9350506040611e3287828801611a93565b925050606085013567ffffffffffffffff811115611e5357611e52611900565b5b611e5f87828801611dba565b91505092959194509250565b60008060408385031215611e8257611e816118fb565b5b6000611e9085828601611b48565b9250506020611ea185828601611b48565b9150509250929050565b7f4e487b7100000000000000000000000000000000000000000000000000000000600052602260045260246000fd5b60006002820490506001821680611ef257607f821691505b602082108103611f0557611f04611eab565b5b50919050565b6000606082019050611f206000830186611b07565b611f2d6020830185611c1d565b611f3a6040830184611b07565b949350505050565b7f4e487b7100000000000000000000000000000000000000000000000000000000600052601160045260246000fd5b6000611f7c82611a72565b91507fffffffffffffffffffffffffffffffffffffffffffffffffffffffffffffffff8203611fae57611fad611f42565b5b600182019050919050565b600081905092915050565b6000611fcf826119c0565b611fd98185611fb9565b9350611fe98185602086016119dc565b80840191505092915050565b60006120018285611fc4565b915061200d8284611fc4565b91508190509392505050565b600081519050919050565b600082825260208201905092915050565b600061204082612019565b61204a8185612024565b935061205a8185602086016119dc565b61206381611a06565b840191505092915050565b60006080820190506120836000830187611b07565b6120906020830186611b07565b61209d6040830185611c1d565b81810360608301526120af8184612035565b905095945050505050565b6000815190506120c981611931565b92915050565b6000602082840312156120e5576120e46118fb565b5b60006120f3848285016120ba565b91505092915050565b7f4e487b7100000000000000000000000000000000000000000000000000000000600052601260045260246000fd5b60006040820190506121406000830185611b07565b61214d6020830184611c1d565b939250505056fea26469706673582212201df35178f349ff209910d6b3c176e3b1e45da2d0606c9b25fde0947b454c9e2064736f6c634300081b0033",
  "linkReferences": {},
  "deployedLinkReferences": {}
}